{
  "contractName": "BridgeBase",
  "abi": [
    {
      "inputs": [
        {
          "internalType": "address",
          "name": "_token",
          "type": "address"
        }
      ],
      "stateMutability": "nonpayable",
      "type": "constructor"
    },
    {
      "anonymous": false,
      "inputs": [
        {
          "indexed": false,
          "internalType": "address",
          "name": "from",
          "type": "address"
        },
        {
          "indexed": false,
          "internalType": "address",
          "name": "to",
          "type": "address"
        },
        {
          "indexed": false,
          "internalType": "uint256",
          "name": "amount",
          "type": "uint256"
        },
        {
          "indexed": false,
          "internalType": "uint256",
          "name": "date",
          "type": "uint256"
        },
        {
          "indexed": false,
          "internalType": "uint256",
          "name": "nonce",
          "type": "uint256"
        },
        {
          "indexed": false,
          "internalType": "bytes",
          "name": "signature",
          "type": "bytes"
        },
        {
          "indexed": true,
          "internalType": "enum BridgeBase.Step",
          "name": "step",
          "type": "uint8"
        }
      ],
      "name": "Transfer",
      "type": "event"
    },
    {
      "inputs": [],
      "name": "admin",
      "outputs": [
        {
          "internalType": "address",
          "name": "",
          "type": "address"
        }
      ],
      "stateMutability": "view",
      "type": "function"
    },
    {
      "inputs": [
        {
          "internalType": "address",
          "name": "",
          "type": "address"
        },
        {
          "internalType": "uint256",
          "name": "",
          "type": "uint256"
        }
      ],
      "name": "processedNonces",
      "outputs": [
        {
          "internalType": "bool",
          "name": "",
          "type": "bool"
        }
      ],
      "stateMutability": "view",
      "type": "function"
    },
    {
      "inputs": [],
      "name": "token",
      "outputs": [
        {
          "internalType": "contract IToken",
          "name": "",
          "type": "address"
        }
      ],
      "stateMutability": "view",
      "type": "function"
    },
    {
      "inputs": [
        {
          "internalType": "address",
          "name": "to",
          "type": "address"
        },
        {
          "internalType": "uint256",
          "name": "amount",
          "type": "uint256"
        },
        {
          "internalType": "uint256",
          "name": "nonce",
          "type": "uint256"
        },
        {
          "internalType": "bytes",
          "name": "signature",
          "type": "bytes"
        }
      ],
      "name": "burn",
      "outputs": [],
      "stateMutability": "nonpayable",
      "type": "function"
    },
    {
      "inputs": [
        {
          "internalType": "address",
          "name": "from",
          "type": "address"
        },
        {
          "internalType": "address",
          "name": "to",
          "type": "address"
        },
        {
          "internalType": "uint256",
          "name": "amount",
          "type": "uint256"
        },
        {
          "internalType": "uint256",
          "name": "nonce",
          "type": "uint256"
        },
        {
          "internalType": "bytes",
          "name": "signature",
          "type": "bytes"
        }
      ],
      "name": "mint",
      "outputs": [],
      "stateMutability": "nonpayable",
      "type": "function"
    }
  ],
  "bytecode": "0x608060405234801561001057600080fd5b50604051610daf380380610daf8339818101604052810190610032919061011c565b336000806101000a81548173ffffffffffffffffffffffffffffffffffffffff021916908373ffffffffffffffffffffffffffffffffffffffff16021790555080600160006101000a81548173ffffffffffffffffffffffffffffffffffffffff021916908373ffffffffffffffffffffffffffffffffffffffff16021790555050610149565b600080fd5b600073ffffffffffffffffffffffffffffffffffffffff82169050919050565b60006100e9826100be565b9050919050565b6100f9816100de565b811461010457600080fd5b50565b600081519050610116816100f0565b92915050565b600060208284031215610132576101316100b9565b5b600061014084828501610107565b91505092915050565b610c57806101586000396000f3fe608060405234801561001057600080fd5b50600436106100575760003560e01c8063525557021461005c5780637cc70240146100785780638a94b05f146100a8578063f851a440146100c4578063fc0c546a146100e2575b600080fd5b610076600480360381019061007191906106da565b610100565b005b610092600480360381019061008d9190610774565b610334565b60405161009f91906107cf565b60405180910390f35b6100c260048036038101906100bd91906107ea565b610363565b005b6100cc61055d565b6040516100d99190610881565b60405180910390f35b6100ea610581565b6040516100f791906108fb565b60405180910390f35b60006101378787878760405160200161011c949392919061097f565b604051602081830303815290604052805190602001206105a7565b905060001515600260008973ffffffffffffffffffffffffffffffffffffffff1673ffffffffffffffffffffffffffffffffffffffff168152602001908152602001600020600086815260200190815260200160002060009054906101000a900460ff161515146101dd576040517f08c379a00000000000000000000000000000000000000000000000000000000081526004016101d490610a2a565b60405180910390fd5b6001600260008973ffffffffffffffffffffffffffffffffffffffff1673ffffffffffffffffffffffffffffffffffffffff168152602001908152602001600020600086815260200190815260200160002060006101000a81548160ff021916908315150217905550600160009054906101000a900473ffffffffffffffffffffffffffffffffffffffff1673ffffffffffffffffffffffffffffffffffffffff166340c10f1987876040518363ffffffff1660e01b81526004016102a3929190610a59565b600060405180830381600087803b1580156102bd57600080fd5b505af11580156102d1573d6000803e3d6000fd5b505050506001808111156102e8576102e7610a82565b5b7fce5a9b86edd3b998c3948a7934c7ecf7dba73c4c5bcf56cf576bca4aa2beeb30888888428989896040516103239796959493929190610b0f565b60405180910390a250505050505050565b60026020528160005260406000206020528060005260406000206000915091509054906101000a900460ff1681565b60001515600260003373ffffffffffffffffffffffffffffffffffffffff1673ffffffffffffffffffffffffffffffffffffffff168152602001908152602001600020600085815260200190815260200160002060009054906101000a900460ff16151514610407576040517f08c379a00000000000000000000000000000000000000000000000000000000081526004016103fe90610a2a565b60405180910390fd5b6001600260003373ffffffffffffffffffffffffffffffffffffffff1673ffffffffffffffffffffffffffffffffffffffff168152602001908152602001600020600085815260200190815260200160002060006101000a81548160ff021916908315150217905550600160009054906101000a900473ffffffffffffffffffffffffffffffffffffffff1673ffffffffffffffffffffffffffffffffffffffff16639dc29fac33866040518363ffffffff1660e01b81526004016104cd929190610a59565b600060405180830381600087803b1580156104e757600080fd5b505af11580156104fb573d6000803e3d6000fd5b505050506000600181111561051357610512610a82565b5b7fce5a9b86edd3b998c3948a7934c7ecf7dba73c4c5bcf56cf576bca4aa2beeb303387874288888860405161054e9796959493929190610b0f565b60405180910390a25050505050565b60008054906101000a900473ffffffffffffffffffffffffffffffffffffffff1681565b600160009054906101000a900473ffffffffffffffffffffffffffffffffffffffff1681565b6000816040516020016105ba9190610bfb565b604051602081830303815290604052805190602001209050919050565b600080fd5b600080fd5b600073ffffffffffffffffffffffffffffffffffffffff82169050919050565b600061060c826105e1565b9050919050565b61061c81610601565b811461062757600080fd5b50565b60008135905061063981610613565b92915050565b6000819050919050565b6106528161063f565b811461065d57600080fd5b50565b60008135905061066f81610649565b92915050565b600080fd5b600080fd5b600080fd5b60008083601f84011261069a57610699610675565b5b8235905067ffffffffffffffff8111156106b7576106b661067a565b5b6020830191508360018202830111156106d3576106d261067f565b5b9250929050565b60008060008060008060a087890312156106f7576106f66105d7565b5b600061070589828a0161062a565b965050602061071689828a0161062a565b955050604061072789828a01610660565b945050606061073889828a01610660565b935050608087013567ffffffffffffffff811115610759576107586105dc565b5b61076589828a01610684565b92509250509295509295509295565b6000806040838503121561078b5761078a6105d7565b5b60006107998582860161062a565b92505060206107aa85828601610660565b9150509250929050565b60008115159050919050565b6107c9816107b4565b82525050565b60006020820190506107e460008301846107c0565b92915050565b600080600080600060808688031215610806576108056105d7565b5b60006108148882890161062a565b955050602061082588828901610660565b945050604061083688828901610660565b935050606086013567ffffffffffffffff811115610857576108566105dc565b5b61086388828901610684565b92509250509295509295909350565b61087b81610601565b82525050565b60006020820190506108966000830184610872565b92915050565b6000819050919050565b60006108c16108bc6108b7846105e1565b61089c565b6105e1565b9050919050565b60006108d3826108a6565b9050919050565b60006108e5826108c8565b9050919050565b6108f5816108da565b82525050565b600060208201905061091060008301846108ec565b92915050565b60008160601b9050919050565b600061092e82610916565b9050919050565b600061094082610923565b9050919050565b61095861095382610601565b610935565b82525050565b6000819050919050565b6109796109748261063f565b61095e565b82525050565b600061098b8287610947565b60148201915061099b8286610947565b6014820191506109ab8285610968565b6020820191506109bb8284610968565b60208201915081905095945050505050565b600082825260208201905092915050565b7f7472616e7366657220616c72656164792070726f636573736564000000000000600082015250565b6000610a14601a836109cd565b9150610a1f826109de565b602082019050919050565b60006020820190508181036000830152610a4381610a07565b9050919050565b610a538161063f565b82525050565b6000604082019050610a6e6000830185610872565b610a7b6020830184610a4a565b9392505050565b7f4e487b7100000000000000000000000000000000000000000000000000000000600052602160045260246000fd5b600082825260208201905092915050565b82818337600083830152505050565b6000601f19601f8301169050919050565b6000610aee8385610ab1565b9350610afb838584610ac2565b610b0483610ad1565b840190509392505050565b600060c082019050610b24600083018a610872565b610b316020830189610872565b610b3e6040830188610a4a565b610b4b6060830187610a4a565b610b586080830186610a4a565b81810360a0830152610b6b818486610ae2565b905098975050505050505050565b600081905092915050565b7f19457468657265756d205369676e6564204d6573736167653a0a333200000000600082015250565b6000610bba601c83610b79565b9150610bc582610b84565b601c82019050919050565b6000819050919050565b6000819050919050565b610bf5610bf082610bd0565b610bda565b82525050565b6000610c0682610bad565b9150610c128284610be4565b6020820191508190509291505056fea2646970667358221220fa969c4c64b2639d5ddb7fb3e31cf9b5bd71230dd047719176cf8017f1a343c764736f6c634300080a0033",
  "immutableReferences": {},
  "source": "pragma solidity ^0.8.0;\n\nimport \"@openzeppelin/contracts/token/ERC20/IERC20.sol\";\nimport \"./IToken.sol\";\n\ncontract BridgeBase {\n    address public admin;\n    IToken public token;\n    mapping(address => mapping(uint256 => bool)) public processedNonces;\n\n    enum Step {\n        Burn,\n        Mint\n    }\n    event Transfer(\n        address from,\n        address to,\n        uint256 amount,\n        uint256 date,\n        uint256 nonce,\n        bytes signature,\n        Step indexed step\n    );\n\n    constructor(address _token) {\n        admin = msg.sender;\n        token = IToken(_token);\n    }\n\n    function burn(\n        address to,\n        uint256 amount,\n        uint256 nonce,\n        bytes calldata signature\n    ) external {\n        require(\n            processedNonces[msg.sender][nonce] == false,\n            \"transfer already processed\"\n        );\n        processedNonces[msg.sender][nonce] = true;\n        token.burn(msg.sender, amount);\n        emit Transfer(\n            msg.sender,\n            to,\n            amount,\n            block.timestamp,\n            nonce,\n            signature,\n            Step.Burn\n        );\n    }\n\n    function mint(\n        address from,\n        address to,\n        uint256 amount,\n        uint256 nonce,\n        bytes calldata signature\n    ) external {\n        bytes32 message = prefixed(\n            keccak256(abi.encodePacked(from, to, amount, nonce))\n        );\n        // require(recoverSigner(message, signature) == from, \"wrong signature\");\n        require(\n            processedNonces[from][nonce] == false,\n            \"transfer already processed\"\n        );\n        processedNonces[from][nonce] = true;\n        token.mint(to, amount);\n        emit Transfer(\n            from,\n            to,\n            amount,\n            block.timestamp,\n            nonce,\n            signature,\n            Step.Mint\n        );\n    }\n\n    function prefixed(bytes32 hash) internal pure returns (bytes32) {\n        return\n            keccak256(\n                abi.encodePacked(\"\\x19Ethereum Signed Message:\\n32\", hash)\n            );\n    }\n\n    function recoverSigner(bytes32 message, bytes memory sig)\n        internal\n        pure\n        returns (address)\n    {\n        uint8 v;\n        bytes32 r;\n        bytes32 s;\n\n        (v, r, s) = splitSignature(sig);\n\n        return ecrecover(message, v, r, s);\n    }\n\n    function splitSignature(bytes memory sig)\n        internal\n        pure\n        returns (\n            uint8,\n            bytes32,\n            bytes32\n        )\n    {\n        require(sig.length == 65, \"mismatch sig len\");\n\n        bytes32 r;\n        bytes32 s;\n        uint8 v;\n\n        assembly {\n            // first 32 bytes, after the length prefix\n            r := mload(add(sig, 32))\n            // second 32 bytes\n            s := mload(add(sig, 64))\n            // final byte (first byte of the next 32 bytes)\n            v := byte(0, mload(add(sig, 96)))\n        }\n\n        return (v, r, s);\n    }\n}\n",
  "sourcePath": "/home/gsk967/Sai/HackAtom4/evmos/cross-chain/contracts/BridgeBase.sol",
  "compiler": {
    "name": "solc",
    "version": "0.8.10+commit.fc410830.Emscripten.clang"
  },
  "schemaVersion": "3.4.3",
  "updatedAt": "2021-12-08T04:48:43.120Z",
  "devdoc": {
    "kind": "dev",
    "methods": {},
    "version": 1
  },
  "userdoc": {
    "kind": "user",
    "methods": {},
    "version": 1
  }
}